{"abi":[{"type":"constructor","inputs":[],"stateMutability":"nonpayable"},{"type":"function","name":"DEFAULT_ADMIN_ROLE","inputs":[],"outputs":[{"name":"","type":"bytes32","internalType":"bytes32"}],"stateMutability":"view"},{"type":"function","name":"MINTER_ROLE","inputs":[],"outputs":[{"name":"","type":"bytes32","internalType":"bytes32"}],"stateMutability":"view"},{"type":"function","name":"PAUSE_ROLE","inputs":[],"outputs":[{"name":"","type":"bytes32","internalType":"bytes32"}],"stateMutability":"view"},{"type":"function","name":"UPGRADER_ROLE","inputs":[],"outputs":[{"name":"","type":"bytes32","internalType":"bytes32"}],"stateMutability":"view"},{"type":"function","name":"UPGRADE_INTERFACE_VERSION","inputs":[],"outputs":[{"name":"","type":"string","internalType":"string"}],"stateMutability":"view"},{"type":"function","name":"approve","inputs":[{"name":"to","type":"address","internalType":"address"},{"name":"tokenId","type":"uint256","internalType":"uint256"}],"outputs":[],"stateMutability":"nonpayable"},{"type":"function","name":"balanceOf","inputs":[{"name":"owner","type":"address","internalType":"address"}],"outputs":[{"name":"","type":"uint256","internalType":"uint256"}],"stateMutability":"view"},{"type":"function","name":"burn","inputs":[{"name":"_from","type":"address","internalType":"address"},{"name":"_id","type":"uint256","internalType":"uint256"}],"outputs":[],"stateMutability":"nonpayable"},{"type":"function","name":"disableNFT","inputs":[{"name":"_id","type":"uint256","internalType":"uint256"}],"outputs":[],"stateMutability":"nonpayable"},{"type":"function","name":"enableNFT","inputs":[{"name":"_id","type":"uint256","internalType":"uint256"}],"outputs":[],"stateMutability":"nonpayable"},{"type":"function","name":"getApproved","inputs":[{"name":"tokenId","type":"uint256","internalType":"uint256"}],"outputs":[{"name":"","type":"address","internalType":"address"}],"stateMutability":"view"},{"type":"function","name":"getNFTData","inputs":[{"name":"_tokenID","type":"uint256","internalType":"uint256"}],"outputs":[{"name":"","type":"tuple","internalType":"struct YLD_Metadata","components":[{"name":"assetID","type":"uint256","internalType":"uint256"},{"name":"uri","type":"string","internalType":"string"},{"name":"assetValue","type":"uint256","internalType":"uint256"},{"name":"stableValueGross","type":"uint256","internalType":"uint256"},{"name":"stableValueNet","type":"uint256","internalType":"uint256"},{"name":"depositTimestamp","type":"uint256","internalType":"uint256"},{"name":"depositfeeAmount","type":"uint256","internalType":"uint256"},{"name":"haircutAmount","type":"uint256","internalType":"uint256"},{"name":"haircutAmountAssetValue","type":"uint256","internalType":"uint256"},{"name":"withdrawfeeAmount","type":"uint256","internalType":"uint256"},{"name":"insurancefeeAmount","type":"uint256","internalType":"uint256"},{"name":"Fees","type":"tuple","internalType":"struct FeeStruct","components":[{"name":"depositFee","type":"uint256","internalType":"uint256"},{"name":"hairCut","type":"uint256","internalType":"uint256"},{"name":"withdrawFee","type":"uint256","internalType":"uint256"},{"name":"insuranceFee","type":"uint256","internalType":"uint256"},{"name":"duration","type":"uint256","internalType":"uint256"},{"name":"yieldDuration","type":"uint256","internalType":"uint256"}]},{"name":"additionalBuffer","type":"bytes","internalType":"bytes"},{"name":"isDisabled","type":"bool","internalType":"bool"}]}],"stateMutability":"view"},{"type":"function","name":"getRoleAdmin","inputs":[{"name":"role","type":"bytes32","internalType":"bytes32"}],"outputs":[{"name":"","type":"bytes32","internalType":"bytes32"}],"stateMutability":"view"},{"type":"function","name":"grantRole","inputs":[{"name":"role","type":"bytes32","internalType":"bytes32"},{"name":"account","type":"address","internalType":"address"}],"outputs":[],"stateMutability":"nonpayable"},{"type":"function","name":"hasRole","inputs":[{"name":"role","type":"bytes32","internalType":"bytes32"},{"name":"account","type":"address","internalType":"address"}],"outputs":[{"name":"","type":"bool","internalType":"bool"}],"stateMutability":"view"},{"type":"function","name":"initialize","inputs":[{"name":"_uri","type":"string","internalType":"string"}],"outputs":[],"stateMutability":"nonpayable"},{"type":"function","name":"isApprovedForAll","inputs":[{"name":"owner","type":"address","internalType":"address"},{"name":"operator","type":"address","internalType":"address"}],"outputs":[{"name":"","type":"bool","internalType":"bool"}],"stateMutability":"view"},{"type":"function","name":"isTrustedForwarder","inputs":[{"name":"forwarder","type":"address","internalType":"address"}],"outputs":[{"name":"","type":"bool","internalType":"bool"}],"stateMutability":"view"},{"type":"function","name":"mint","inputs":[{"name":"_to","type":"address","internalType":"address"},{"name":"_metadata","type":"tuple","internalType":"struct YLD_Metadata","components":[{"name":"assetID","type":"uint256","internalType":"uint256"},{"name":"uri","type":"string","internalType":"string"},{"name":"assetValue","type":"uint256","internalType":"uint256"},{"name":"stableValueGross","type":"uint256","internalType":"uint256"},{"name":"stableValueNet","type":"uint256","internalType":"uint256"},{"name":"depositTimestamp","type":"uint256","internalType":"uint256"},{"name":"depositfeeAmount","type":"uint256","internalType":"uint256"},{"name":"haircutAmount","type":"uint256","internalType":"uint256"},{"name":"haircutAmountAssetValue","type":"uint256","internalType":"uint256"},{"name":"withdrawfeeAmount","type":"uint256","internalType":"uint256"},{"name":"insurancefeeAmount","type":"uint256","internalType":"uint256"},{"name":"Fees","type":"tuple","internalType":"struct FeeStruct","components":[{"name":"depositFee","type":"uint256","internalType":"uint256"},{"name":"hairCut","type":"uint256","internalType":"uint256"},{"name":"withdrawFee","type":"uint256","internalType":"uint256"},{"name":"insuranceFee","type":"uint256","internalType":"uint256"},{"name":"duration","type":"uint256","internalType":"uint256"},{"name":"yieldDuration","type":"uint256","internalType":"uint256"}]},{"name":"additionalBuffer","type":"bytes","internalType":"bytes"},{"name":"isDisabled","type":"bool","internalType":"bool"}]}],"outputs":[{"name":"","type":"uint256","internalType":"uint256"}],"stateMutability":"nonpayable"},{"type":"function","name":"name","inputs":[],"outputs":[{"name":"","type":"string","internalType":"string"}],"stateMutability":"view"},{"type":"function","name":"nftCtr","inputs":[],"outputs":[{"name":"","type":"uint256","internalType":"uint256"}],"stateMutability":"view"},{"type":"function","name":"ownerOf","inputs":[{"name":"tokenId","type":"uint256","internalType":"uint256"}],"outputs":[{"name":"","type":"address","internalType":"address"}],"stateMutability":"view"},{"type":"function","name":"pause","inputs":[],"outputs":[],"stateMutability":"nonpayable"},{"type":"function","name":"paused","inputs":[],"outputs":[{"name":"","type":"bool","internalType":"bool"}],"stateMutability":"view"},{"type":"function","name":"proxiableUUID","inputs":[],"outputs":[{"name":"","type":"bytes32","internalType":"bytes32"}],"stateMutability":"view"},{"type":"function","name":"renounceRole","inputs":[{"name":"role","type":"bytes32","internalType":"bytes32"},{"name":"callerConfirmation","type":"address","internalType":"address"}],"outputs":[],"stateMutability":"nonpayable"},{"type":"function","name":"revokeRole","inputs":[{"name":"role","type":"bytes32","internalType":"bytes32"},{"name":"account","type":"address","internalType":"address"}],"outputs":[],"stateMutability":"nonpayable"},{"type":"function","name":"safeTransferFrom","inputs":[{"name":"from","type":"address","internalType":"address"},{"name":"to","type":"address","internalType":"address"},{"name":"tokenId","type":"uint256","internalType":"uint256"}],"outputs":[],"stateMutability":"nonpayable"},{"type":"function","name":"safeTransferFrom","inputs":[{"name":"from","type":"address","internalType":"address"},{"name":"to","type":"address","internalType":"address"},{"name":"tokenId","type":"uint256","internalType":"uint256"},{"name":"data","type":"bytes","internalType":"bytes"}],"outputs":[],"stateMutability":"nonpayable"},{"type":"function","name":"setApprovalForAll","inputs":[{"name":"operator","type":"address","internalType":"address"},{"name":"approved","type":"bool","internalType":"bool"}],"outputs":[],"stateMutability":"nonpayable"},{"type":"function","name":"setBaseURI","inputs":[{"name":"_uri","type":"string","internalType":"string"}],"outputs":[],"stateMutability":"nonpayable"},{"type":"function","name":"supportsInterface","inputs":[{"name":"interfaceId","type":"bytes4","internalType":"bytes4"}],"outputs":[{"name":"","type":"bool","internalType":"bool"}],"stateMutability":"view"},{"type":"function","name":"symbol","inputs":[],"outputs":[{"name":"","type":"string","internalType":"string"}],"stateMutability":"view"},{"type":"function","name":"tokenURI","inputs":[{"name":"_tokenID","type":"uint256","internalType":"uint256"}],"outputs":[{"name":"","type":"string","internalType":"string"}],"stateMutability":"view"},{"type":"function","name":"transferFrom","inputs":[{"name":"from","type":"address","internalType":"address"},{"name":"to","type":"address","internalType":"address"},{"name":"tokenId","type":"uint256","internalType":"uint256"}],"outputs":[],"stateMutability":"nonpayable"},{"type":"function","name":"trustedForwarder","inputs":[],"outputs":[{"name":"","type":"address","internalType":"address"}],"stateMutability":"view"},{"type":"function","name":"unpause","inputs":[],"outputs":[],"stateMutability":"nonpayable"},{"type":"function","name":"updateTrustedForwarder","inputs":[{"name":"_newForwarder","type":"address","internalType":"address"}],"outputs":[],"stateMutability":"nonpayable"},{"type":"function","name":"upgradeToAndCall","inputs":[{"name":"newImplementation","type":"address","internalType":"address"},{"name":"data","type":"bytes","internalType":"bytes"}],"outputs":[],"stateMutability":"payable"},{"type":"function","name":"version","inputs":[],"outputs":[{"name":"","type":"uint256","internalType":"uint256"}],"stateMutability":"view"},{"type":"event","name":"Approval","inputs":[{"name":"owner","type":"address","indexed":true,"internalType":"address"},{"name":"approved","type":"address","indexed":true,"internalType":"address"},{"name":"tokenId","type":"uint256","indexed":true,"internalType":"uint256"}],"anonymous":false},{"type":"event","name":"ApprovalForAll","inputs":[{"name":"owner","type":"address","indexed":true,"internalType":"address"},{"name":"operator","type":"address","indexed":true,"internalType":"address"},{"name":"approved","type":"bool","indexed":false,"internalType":"bool"}],"anonymous":false},{"type":"event","name":"BurnEvent","inputs":[{"name":"_from","type":"address","indexed":true,"internalType":"address"},{"name":"_id","type":"uint256","indexed":true,"internalType":"uint256"}],"anonymous":false},{"type":"event","name":"ContractUpgraded","inputs":[{"name":"newImplementation","type":"address","indexed":false,"internalType":"address"}],"anonymous":false},{"type":"event","name":"Initialized","inputs":[{"name":"version","type":"uint64","indexed":false,"internalType":"uint64"}],"anonymous":false},{"type":"event","name":"MintEvent","inputs":[{"name":"_addr","type":"address","indexed":true,"internalType":"address"},{"name":"_id","type":"uint256","indexed":true,"internalType":"uint256"},{"name":"_nftMetadata","type":"tuple","indexed":false,"internalType":"struct YLD_Metadata","components":[{"name":"assetID","type":"uint256","internalType":"uint256"},{"name":"uri","type":"string","internalType":"string"},{"name":"assetValue","type":"uint256","internalType":"uint256"},{"name":"stableValueGross","type":"uint256","internalType":"uint256"},{"name":"stableValueNet","type":"uint256","internalType":"uint256"},{"name":"depositTimestamp","type":"uint256","internalType":"uint256"},{"name":"depositfeeAmount","type":"uint256","internalType":"uint256"},{"name":"haircutAmount","type":"uint256","internalType":"uint256"},{"name":"haircutAmountAssetValue","type":"uint256","internalType":"uint256"},{"name":"withdrawfeeAmount","type":"uint256","internalType":"uint256"},{"name":"insurancefeeAmount","type":"uint256","internalType":"uint256"},{"name":"Fees","type":"tuple","internalType":"struct FeeStruct","components":[{"name":"depositFee","type":"uint256","internalType":"uint256"},{"name":"hairCut","type":"uint256","internalType":"uint256"},{"name":"withdrawFee","type":"uint256","internalType":"uint256"},{"name":"insuranceFee","type":"uint256","internalType":"uint256"},{"name":"duration","type":"uint256","internalType":"uint256"},{"name":"yieldDuration","type":"uint256","internalType":"uint256"}]},{"name":"additionalBuffer","type":"bytes","internalType":"bytes"},{"name":"isDisabled","type":"bool","internalType":"bool"}]}],"anonymous":false},{"type":"event","name":"NFTDisabled","inputs":[{"name":"_id","type":"uint256","indexed":true,"internalType":"uint256"}],"anonymous":false},{"type":"event","name":"NFTEnabled","inputs":[{"name":"_id","type":"uint256","indexed":true,"internalType":"uint256"}],"anonymous":false},{"type":"event","name":"Paused","inputs":[{"name":"account","type":"address","indexed":false,"internalType":"address"}],"anonymous":false},{"type":"event","name":"RoleAdminChanged","inputs":[{"name":"role","type":"bytes32","indexed":true,"internalType":"bytes32"},{"name":"previousAdminRole","type":"bytes32","indexed":true,"internalType":"bytes32"},{"name":"newAdminRole","type":"bytes32","indexed":true,"internalType":"bytes32"}],"anonymous":false},{"type":"event","name":"RoleGranted","inputs":[{"name":"role","type":"bytes32","indexed":true,"internalType":"bytes32"},{"name":"account","type":"address","indexed":true,"internalType":"address"},{"name":"sender","type":"address","indexed":true,"internalType":"address"}],"anonymous":false},{"type":"event","name":"RoleRevoked","inputs":[{"name":"role","type":"bytes32","indexed":true,"internalType":"bytes32"},{"name":"account","type":"address","indexed":true,"internalType":"address"},{"name":"sender","type":"address","indexed":true,"internalType":"address"}],"anonymous":false},{"type":"event","name":"Transfer","inputs":[{"name":"from","type":"address","indexed":true,"internalType":"address"},{"name":"to","type":"address","indexed":true,"internalType":"address"},{"name":"tokenId","type":"uint256","indexed":true,"internalType":"uint256"}],"anonymous":false},{"type":"event","name":"TrustedForwarderUpdated","inputs":[{"name":"previousForwarder","type":"address","indexed":true,"internalType":"address"},{"name":"newForwarder","type":"address","indexed":true,"internalType":"address"}],"anonymous":false},{"type":"event","name":"Unpaused","inputs":[{"name":"account","type":"address","indexed":false,"internalType":"address"}],"anonymous":false},{"type":"event","name":"Upgraded","inputs":[{"name":"implementation","type":"address","indexed":true,"internalType":"address"}],"anonymous":false},{"type":"error","name":"AccessControlBadConfirmation","inputs":[]},{"type":"error","name":"AccessControlUnauthorizedAccount","inputs":[{"name":"account","type":"address","internalType":"address"},{"name":"neededRole","type":"bytes32","internalType":"bytes32"}]},{"type":"error","name":"AddressEmptyCode","inputs":[{"name":"target","type":"address","internalType":"address"}]},{"type":"error","name":"ERC1967InvalidImplementation","inputs":[{"name":"implementation","type":"address","internalType":"address"}]},{"type":"error","name":"ERC1967NonPayable","inputs":[]},{"type":"error","name":"ERC721IncorrectOwner","inputs":[{"name":"sender","type":"address","internalType":"address"},{"name":"tokenId","type":"uint256","internalType":"uint256"},{"name":"owner","type":"address","internalType":"address"}]},{"type":"error","name":"ERC721InsufficientApproval","inputs":[{"name":"operator","type":"address","internalType":"address"},{"name":"tokenId","type":"uint256","internalType":"uint256"}]},{"type":"error","name":"ERC721InvalidApprover","inputs":[{"name":"approver","type":"address","internalType":"address"}]},{"type":"error","name":"ERC721InvalidOperator","inputs":[{"name":"operator","type":"address","internalType":"address"}]},{"type":"error","name":"ERC721InvalidOwner","inputs":[{"name":"owner","type":"address","internalType":"address"}]},{"type":"error","name":"ERC721InvalidReceiver","inputs":[{"name":"receiver","type":"address","internalType":"address"}]},{"type":"error","name":"ERC721InvalidSender","inputs":[{"name":"sender","type":"address","internalType":"address"}]},{"type":"error","name":"ERC721NonexistentToken","inputs":[{"name":"tokenId","type":"uint256","internalType":"uint256"}]},{"type":"error","name":"EnforcedPause","inputs":[]},{"type":"error","name":"ExpectedPause","inputs":[]},{"type":"error","name":"FailedCall","inputs":[]},{"type":"error","name":"InvalidInitialization","inputs":[]},{"type":"error","name":"NotInitializing","inputs":[]},{"type":"error","name":"STBL_YLD_AlreadyDisabled","inputs":[{"name":"tokenId","type":"uint256","internalType":"uint256"}]},{"type":"error","name":"STBL_YLD_AlreadyEnabled","inputs":[{"name":"tokenId","type":"uint256","internalType":"uint256"}]},{"type":"error","name":"STBL_YLD_NotOwner","inputs":[{"name":"tokenId","type":"uint256","internalType":"uint256"}]},{"type":"error","name":"STBL_YLD_TransferDisabled","inputs":[{"name":"tokenId","type":"uint256","internalType":"uint256"}]},{"type":"error","name":"UUPSUnauthorizedCallContext","inputs":[]},{"type":"error","name":"UUPSUnsupportedProxiableUUID","inputs":[{"name":"slot","type":"bytes32","internalType":"bytes32"}]}],"bytecode":{"object":"0x60c06040523073ffffffffffffffffffffffffffffffffffffffff1660a09073ffffffffffffffffffffffffffffffffffffffff16815250348015610042575f5ffd5b505f8073ffffffffffffffffffffffffffffffffffffffff1660808173ffffffffffffffffffffffffffffffffffffffff16815250505061008761008c60201b60201c565b610207565b5f61009b61018a60201b60201c565b9050805f0160089054906101000a900460ff16156100e5576040517ff92ee8a900000000000000000000000000000000000000000000000000000000815260040160405180910390fd5b67ffffffffffffffff8016815f015f9054906101000a900467ffffffffffffffff1667ffffffffffffffff16146101875767ffffffffffffffff815f015f6101000a81548167ffffffffffffffff021916908367ffffffffffffffff1602179055507fc7f505b2f371ae2175ee4913f4499e1f2633a7b5936321eed1cdaeb6115181d267ffffffffffffffff60405161017e91906101ee565b60405180910390a15b50565b5f5f61019a6101a360201b60201c565b90508091505090565b5f7ff0c57e16840df040f15088dc2f81fe391c3923bec73e23a9662efc9c229c6a005f1b905090565b5f67ffffffffffffffff82169050919050565b6101e8816101cc565b82525050565b5f6020820190506102015f8301846101df565b92915050565b60805160a051614ffb6102335f395f818161226f015281816122c401526124eb01525f5050614ffb5ff3fe60806040526004361061023a575f3560e01c806370a082311161012d578063b88d4fde116100aa578063e985e9c51161006e578063e985e9c514610862578063f62d18881461089e578063f72c0d8b146108c6578063f90b0311146108f0578063fe440424146109185761023a565b8063b88d4fde14610784578063c87b56dd146107ac578063cf7e15e7146107e8578063d539139314610810578063d547741f1461083a5761023a565b80639dc29fac116100f15780639dc29fac146106b8578063a217fddf146106e0578063a22cb4651461070a578063aa77a80914610732578063ad3cb1cc1461075a5761023a565b806370a08231146105d65780637da0a877146106125780638456cb591461063c57806391d148541461065257806395d89b411461068e5761023a565b8063389ed267116101bb57806354fd4d501161017f57806354fd4d50146104e257806355f804b31461050c578063572b6c05146105345780635c975abb146105705780636352211e1461059a5761023a565b8063389ed267146104345780633f4ba83a1461045e57806342842e0e146104745780634f1ef2861461049c57806352d1902d146104b85761023a565b806323b872dd1161020257806323b872dd14610344578063248a9ca31461036c57806326a75148146103a85780632f2ff15d146103e457806336568abe1461040c5761023a565b806301ffc9a71461023e57806306fdde031461027a578063081812fc146102a4578063095ea7b3146102e05780630ad4c4f414610308575b5f5ffd5b348015610249575f5ffd5b50610264600480360381019061025f91906137a6565b610942565b60405161027191906137eb565b60405180910390f35b348015610285575f5ffd5b5061028e610a23565b60405161029b9190613874565b60405180910390f35b3480156102af575f5ffd5b506102ca60048036038101906102c591906138c7565b610ac0565b6040516102d79190613931565b60405180910390f35b3480156102eb575f5ffd5b5061030660048036038101906103019190613974565b610adb565b005b348015610313575f5ffd5b5061032e600480360381019061032991906138c7565b610af1565b60405161033b9190613c15565b60405180910390f35b34801561034f575f5ffd5b5061036a60048036038101906103659190613c35565b610d09565b005b348015610377575f5ffd5b50610392600480360381019061038d9190613cb8565b610e08565b60405161039f9190613cf2565b60405180910390f35b3480156103b3575f5ffd5b506103ce60048036038101906103c99190614127565b610e32565b6040516103db9190614190565b60405180910390f35b3480156103ef575f5ffd5b5061040a600480360381019061040591906141a9565b611047565b005b348015610417575f5ffd5b50610432600480360381019061042d91906141a9565b611069565b005b34801561043f575f5ffd5b506104486110e4565b6040516104559190613cf2565b60405180910390f35b348015610469575f5ffd5b50610472611108565b005b34801561047f575f5ffd5b5061049a60048036038101906104959190613c35565b61113d565b005b6104b660048036038101906104b191906141e7565b61115c565b005b3480156104c3575f5ffd5b506104cc61117b565b6040516104d99190613cf2565b60405180910390f35b3480156104ed575f5ffd5b506104f66111ac565b6040516105039190614190565b60405180910390f35b348015610517575f5ffd5b50610532600480360381019061052d9190614241565b6111b4565b005b34801561053f575f5ffd5b5061055a60048036038101906105559190614288565b6111d4565b60405161056791906137eb565b60405180910390f35b34801561057b575f5ffd5b50610584611212565b60405161059191906137eb565b60405180910390f35b3480156105a5575f5ffd5b506105c060048036038101906105bb91906138c7565b611234565b6040516105cd9190613931565b60405180910390f35b3480156105e1575f5ffd5b506105fc60048036038101906105f79190614288565b611245565b6040516106099190614190565b60405180910390f35b34801561061d575f5ffd5b50610626611309565b6040516106339190613931565b60405180910390f35b348015610647575f5ffd5b50610650611331565b005b34801561065d575f5ffd5b50610678600480360381019061067391906141a9565b611366565b60405161068591906137eb565b60405180910390f35b348015610699575f5ffd5b506106a26113d7565b6040516106af9190613874565b60405180910390f35b3480156106c3575f5ffd5b506106de60048036038101906106d99190613974565b611475565b005b3480156106eb575f5ffd5b506106f46115a0565b6040516107019190613cf2565b60405180910390f35b348015610715575f5ffd5b50610730600480360381019061072b91906142b3565b6115a6565b005b34801561073d575f5ffd5b50610758600480360381019061075391906138c7565b6115bc565b005b348015610765575f5ffd5b5061076e611695565b60405161077b9190613874565b60405180910390f35b34801561078f575f5ffd5b506107aa60048036038101906107a591906142f1565b6116ce565b005b3480156107b7575f5ffd5b506107d260048036038101906107cd91906138c7565b6116f3565b6040516107df9190613874565b60405180910390f35b3480156107f3575f5ffd5b5061080e600480360381019061080991906138c7565b61171f565b005b34801561081b575f5ffd5b506108246117f8565b6040516108319190613cf2565b60405180910390f35b348015610845575f5ffd5b50610860600480360381019061085b91906141a9565b61181c565b005b34801561086d575f5ffd5b5061088860048036038101906108839190614371565b61183e565b60405161089591906137eb565b60405180910390f35b3480156108a9575f5ffd5b506108c460048036038101906108bf9190614241565b6118da565b005b3480156108d1575f5ffd5b506108da611c07565b6040516108e79190613cf2565b60405180910390f35b3480156108fb575f5ffd5b5061091660048036038101906109119190614288565b611c2b565b005b348015610923575f5ffd5b5061092c611cfb565b6040516109399190614190565b60405180910390f35b5f7f7965db0b000000000000000000000000000000000000000000000000000000007bffffffffffffffffffffffffffffffffffffffffffffffffffffffff1916827bffffffffffffffffffffffffffffffffffffffffffffffffffffffff191614806109b457506109b382611d01565b5b80610a1c57507f2a8bc472000000000000000000000000000000000000000000000000000000007bffffffffffffffffffffffffffffffffffffffffffffffffffffffff1916827bffffffffffffffffffffffffffffffffffffffffffffffffffffffff1916145b9050919050565b60605f610a2e611de2565b9050805f018054610a3e906143dc565b80601f0160208091040260200160405190810160405280929190818152602001828054610a6a906143dc565b8015610ab55780601f10610a8c57610100808354040283529160200191610ab5565b820191905f5260205f20905b815481529060010190602001808311610a9857829003601f168201915b505050505091505090565b5f610aca82611e09565b50610ad482611e8f565b9050919050565b610aed8282610ae8611ed6565b611ee4565b5050565b610af96136a4565b60035f8381526020019081526020015f20604051806101c00160405290815f8201548152602001600182018054610b2f906143dc565b80601f0160208091040260200160405190810160405280929190818152602001828054610b5b906143dc565b8015610ba65780601f10610b7d57610100808354040283529160200191610ba6565b820191905f5260205f20905b815481529060010190602001808311610b8957829003601f168201915b505050505081526020016002820154815260200160038201548152602001600482015481526020016005820154815260200160068201548152602001600782015481526020016008820154815260200160098201548152602001600a8201548152602001600b82016040518060c00160405290815f8201548152602001600182015481526020016002820154815260200160038201548152602001600482015481526020016005820154815250508152602001601182018054610c68906143dc565b80601f0160208091040260200160405190810160405280929190818152602001828054610c94906143dc565b8015610cdf5780601f10610cb657610100808354040283529160200191610cdf565b820191905f5260205f20905b815481529060010190602001808311610cc257829003601f168201915b50505050508152602001601282015f9054906101000a900460ff1615151515815250509050919050565b5f73ffffffffffffffffffffffffffffffffffffffff168273ffffffffffffffffffffffffffffffffffffffff1603610d79575f6040517f64a0ae92000000000000000000000000000000000000000000000000000000008152600401610d709190613931565b60405180910390fd5b5f610d8c8383610d87611ed6565b611ef6565b90508373ffffffffffffffffffffffffffffffffffffffff168173ffffffffffffffffffffffffffffffffffffffff1614610e02578382826040517f64283d7b000000000000000000000000000000000000000000000000000000008152600401610df99392919061440c565b60405180910390fd5b50505050565b5f5f610e12611f76565b9050805f015f8481526020019081526020015f2060010154915050919050565b5f610e3b611f9d565b7f9f2df0fed2c77648de5860a4cc508cd0818c85b8b8a1ab4ceeef8d981c8956a6610e6581611fde565b600160025f8282540192505081905550610e8184600254611ff2565b8260035f60025481526020019081526020015f205f820151815f01556020820151816001019081610eb291906145e1565b5060408201518160020155606082015181600301556080820151816004015560a0820151816005015560c0820151816006015560e082015181600701556101008201518160080155610120820151816009015561014082015181600a015561016082015181600b015f820151815f01556020820151816001015560408201518160020155606082015181600301556080820151816004015560a082015181600501555050610180820151816011019081610f6c9190614708565b506101a0820151816012015f6101000a81548160ff0219169083151502179055509050506001600254604051602001610fa6929190614881565b60405160208183030381529060405260035f60025481526020019081526020015f206001019081610fd791906145e1565b506002548473ffffffffffffffffffffffffffffffffffffffff167f8043fe8f116795ef7629296996b147048e91379cc8ec1d92d74b2372d4f0f3a160035f60025481526020019081526020015f206040516110339190614c5d565b60405180910390a360025491505092915050565b61105082610e08565b61105981611fde565b611063838361200f565b50505050565b611071611ed6565b73ffffffffffffffffffffffffffffffffffffffff168173ffffffffffffffffffffffffffffffffffffffff16146110d5576040517f6697b23200000000000000000000000000000000000000000000000000000000815260040160405180910390fd5b6110df8282612107565b505050565b7f139c2898040ef16910dc9f44dc697df79363da767d8bc92f2e310312b816e46d81565b7f139c2898040ef16910dc9f44dc697df79363da767d8bc92f2e310312b816e46d61113281611fde565b61113a6121ff565b50565b61115783838360405180602001604052805f8152506116ce565b505050565b61116461226d565b61116d82612353565b61117782826123cb565b5050565b5f6111846124e9565b7f360894a13ba1a3210667c828492db98dca3e2076cc3735a920a3ca505d382bbc5f1b905090565b5f5f54905090565b5f5f1b6111c081611fde565b81600190816111cf91906145e1565b505050565b5f6111dd611309565b73ffffffffffffffffffffffffffffffffffffffff168273ffffffffffffffffffffffffffffffffffffffff16149050919050565b5f5f61121c612570565b9050805f015f9054906101000a900460ff1691505090565b5f61123e82611e09565b9050919050565b5f5f61124f611de2565b90505f73ffffffffffffffffffffffffffffffffffffffff168373ffffffffffffffffffffffffffffffffffffffff16036112c1575f6040517f89c62b640000000000000000000000000000000000000000000000000000000081526004016112b89190613931565b60405180910390fd5b806003015f8473ffffffffffffffffffffffffffffffffffffffff1673ffffffffffffffffffffffffffffffffffffffff1681526020019081526020015f2054915050919050565b5f60045f9054906101000a900473ffffffffffffffffffffffffffffffffffffffff16905090565b7f139c2898040ef16910dc9f44dc697df79363da767d8bc92f2e310312b816e46d61135b81611fde565b611363612597565b50565b5f5f611370611f76565b9050805f015f8581526020019081526020015f205f015f8473ffffffffffffffffffffffffffffffffffffffff1673ffffffffffffffffffffffffffffffffffffffff1681526020019081526020015f205f9054906101000a900460ff1691505092915050565b60605f6113e2611de2565b90508060010180546113f3906143dc565b80601f016020809104026020016040519081016040528092919081815260200182805461141f906143dc565b801561146a5780601f106114415761010080835404028352916020019161146a565b820191905f5260205f20905b81548152906001019060200180831161144d57829003601f168201915b505050505091505090565b61147d611f9d565b7f9f2df0fed2c77648de5860a4cc508cd0818c85b8b8a1ab4ceeef8d981c8956a66114a781611fde565b8273ffffffffffffffffffffffffffffffffffffffff166114c783611234565b73ffffffffffffffffffffffffffffffffffffffff161461151f57816040517f26e6b2b50000000000000000000000000000000000000000000000000000000081526004016115169190614190565b60405180910390fd5b61152a5f8385611ef6565b50600160035f8481526020019081526020015f206012015f6101000a81548160ff021916908315150217905550818373ffffffffffffffffffffffffffffffffffffffff167f512586160ebd4dc6945ba9ec5d21a1f723f26f3c7aa36cdffb6818d4e7b8803060405160405180910390a3505050565b5f5f1b81565b6115b86115b1611ed6565b8383612606565b5050565b6115c4611f9d565b5f5f1b6115d081611fde565b5f151560035f8481526020019081526020015f206012015f9054906101000a900460ff1615151461163857816040517fdd490ff900000000000000000000000000000000000000000000000000000000815260040161162f9190614190565b60405180910390fd5b600160035f8481526020019081526020015f206012015f6101000a81548160ff021916908315150217905550817f5db0b74e67fed8a29582a0a791f8f25d3d3034fb40a8983d35adbbeeb968fcba60405160405180910390a25050565b6040518060400160405280600581526020017f352e302e3000000000000000000000000000000000000000000000000000000081525081565b6116d9848484610d09565b6116ed6116e4611ed6565b8585858561277d565b50505050565b6060600182604051602001611709929190614881565b6040516020818303038152906040529050919050565b611727611f9d565b5f5f1b61173381611fde565b6001151560035f8481526020019081526020015f206012015f9054906101000a900460ff1615151461179c57816040517fe7b342640000000000000000000000000000000000000000000000000000000081526004016117939190614190565b60405180910390fd5b5f60035f8481526020019081526020015f206012015f6101000a81548160ff021916908315150217905550817ff932128b9c62e7a24b64a8d9b71dcf3f610d6f91ad3b9f74d20c3b4203a7d8eb60405160405180910390a25050565b7f9f2df0fed2c77648de5860a4cc508cd0818c85b8b8a1ab4ceeef8d981c8956a681565b61182582610e08565b61182e81611fde565b6118388383612107565b50505050565b5f5f611848611de2565b9050806005015f8573ffffffffffffffffffffffffffffffffffffffff1673ffffffffffffffffffffffffffffffffffffffff1681526020019081526020015f205f8473ffffffffffffffffffffffffffffffffffffffff1673ffffffffffffffffffffffffffffffffffffffff1681526020019081526020015f205f9054906101000a900460ff1691505092915050565b5f6118e3612929565b90505f815f0160089054906101000a900460ff161590505f825f015f9054906101000a900467ffffffffffffffff1690505f5f8267ffffffffffffffff1614801561192b5750825b90505f60018367ffffffffffffffff1614801561195e57505f3073ffffffffffffffffffffffffffffffffffffffff163b145b90508115801561196c575080155b156119a3576040517ff92ee8a900000000000000000000000000000000000000000000000000000000815260040160405180910390fd5b6001855f015f6101000a81548167ffffffffffffffff021916908367ffffffffffffffff16021790555083156119f0576001855f0160086101000a81548160ff0219169083151502179055505b6119f861293c565b611a6c6040518060400160405280601c81526020017f5354424c5f594c44202d205969656c642042656172696e67204e4654000000008152506040518060400160405280600381526020017f594c440000000000000000000000000000000000000000000000000000000000815250612946565b611a7461295c565b611a7c612966565b611a84612970565b611a975f5f1b611a92611ed6565b61200f565b50611ac97f189ab7a9244df0848122154315af71fe140f3db0fe014031783b0946b8c9d2e3611ac4611ed6565b61200f565b50611af67f9f2df0fed2c77648de5860a4cc508cd0818c85b8b8a1ab4ceeef8d981c8956a65f5f1b61297a565b611b227f139c2898040ef16910dc9f44dc697df79363da767d8bc92f2e310312b816e46d5f5f1b61297a565b611b4e7f189ab7a9244df0848122154315af71fe140f3db0fe014031783b0946b8c9d2e35f5f1b61297a565b8560019081611b5d91906145e1565b505f6002819055505f60045f6101000a81548173ffffffffffffffffffffffffffffffffffffffff021916908373ffffffffffffffffffffffffffffffffffffffff1602179055508315611bff575f855f0160086101000a81548160ff0219169083151502179055507fc7f505b2f371ae2175ee4913f4499e1f2633a7b5936321eed1cdaeb6115181d26001604051611bf69190614cc9565b60405180910390a15b505050505050565b7f189ab7a9244df0848122154315af71fe140f3db0fe014031783b0946b8c9d2e381565b5f5f1b611c3781611fde565b5f60045f9054906101000a900473ffffffffffffffffffffffffffffffffffffffff1690508260045f6101000a81548173ffffffffffffffffffffffffffffffffffffffff021916908373ffffffffffffffffffffffffffffffffffffffff1602179055508273ffffffffffffffffffffffffffffffffffffffff168173ffffffffffffffffffffffffffffffffffffffff167f06710129fbc2650f48c82631edcea255e102cd5e17c444deb7273855cfb5e77d60405160405180910390a3505050565b60025481565b5f7f80ac58cd000000000000000000000000000000000000000000000000000000007bffffffffffffffffffffffffffffffffffffffffffffffffffffffff1916827bffffffffffffffffffffffffffffffffffffffffffffffffffffffff19161480611dcb57507f5b5e139f000000000000000000000000000000000000000000000000000000007bffffffffffffffffffffffffffffffffffffffffffffffffffffffff1916827bffffffffffffffffffffffffffffffffffffffffffffffffffffffff1916145b80611ddb5750611dda826129e0565b5b9050919050565b5f7f80bb2b638cc20bc4d0a60d66940f3ab4a00c1d7b313497ca82fb0b4ab0079300905090565b5f5f611e1483612a59565b90505f73ffffffffffffffffffffffffffffffffffffffff168173ffffffffffffffffffffffffffffffffffffffff1603611e8657826040517f7e273289000000000000000000000000000000000000000000000000000000008152600401611e7d9190614190565b60405180910390fd5b80915050919050565b5f5f611e99611de2565b9050806004015f8481526020019081526020015f205f9054906101000a900473ffffffffffffffffffffffffffffffffffffffff16915050919050565b5f611edf612aa0565b905090565b611ef18383836001612b08565b505050565b5f611eff611f9d565b60035f8481526020019081526020015f206012015f9054906101000a900460ff1615611f6257826040517fc335079b000000000000000000000000000000000000000000000000000000008152600401611f599190614190565b60405180910390fd5b611f6d848484612cd5565b90509392505050565b5f7f02dd7bc7dec4dceedda775e58dd541e08a116c6c53815c0bd028192f7b626800905090565b611fa5611212565b15611fdc576040517fd93c066500000000000000000000000000000000000000000000000000000000815260040160405180910390fd5b565b611fef81611fea611ed6565b612cf2565b50565b61200b828260405180602001604052805f815250612d43565b5050565b5f5f612019611f76565b90506120258484611366565b6120fc576001815f015f8681526020019081526020015f205f015f8573ffffffffffffffffffffffffffffffffffffffff1673ffffffffffffffffffffffffffffffffffffffff1681526020019081526020015f205f6101000a81548160ff021916908315150217905550612098611ed6565b73ffffffffffffffffffffffffffffffffffffffff168373ffffffffffffffffffffffffffffffffffffffff16857f2f8788117e7eff1d82e926ec794901d17c78024a50270940304540a733656f0d60405160405180910390a46001915050612101565b5f9150505b92915050565b5f5f612111611f76565b905061211d8484611366565b156121f4575f815f015f8681526020019081526020015f205f015f8573ffffffffffffffffffffffffffffffffffffffff1673ffffffffffffffffffffffffffffffffffffffff1681526020019081526020015f205f6101000a81548160ff021916908315150217905550612190611ed6565b73ffffffffffffffffffffffffffffffffffffffff168373ffffffffffffffffffffffffffffffffffffffff16857ff6391f5c32d9c69d2a47ea670b442974b53935d1edc7fd64eb21e047a839171b60405160405180910390a460019150506121f9565b5f9150505b92915050565b612207612d66565b5f612210612570565b90505f815f015f6101000a81548160ff0219169083151502179055507f5db9ee0a495bf2e6ff9c91a7834c1ba4fdd244a5e8aa4e537bd38aeae4b073aa612255611ed6565b6040516122629190613931565b60405180910390a150565b7f000000000000000000000000000000000000000000000000000000000000000073ffffffffffffffffffffffffffffffffffffffff163073ffffffffffffffffffffffffffffffffffffffff16148061231a57507f000000000000000000000000000000000000000000000000000000000000000073ffffffffffffffffffffffffffffffffffffffff16612301612da6565b73ffffffffffffffffffffffffffffffffffffffff1614155b15612351576040517fe07c8dba00000000000000000000000000000000000000000000000000000000815260040160405180910390fd5b565b7f189ab7a9244df0848122154315af71fe140f3db0fe014031783b0946b8c9d2e361237d81611fde565b60015f5461238b9190614d0f565b5f819055507fc68d6b394bbff225c75b6ba60811fafb0da04351338aa28c9614981c55287be2826040516123bf9190613931565b60405180910390a15050565b8173ffffffffffffffffffffffffffffffffffffffff166352d1902d6040518163ffffffff1660e01b8152600401602060405180830381865afa92505050801561243357506040513d601f19601f820116820180604052508101906124309190614d56565b60015b61247457816040517f4c9c8ce300000000000000000000000000000000000000000000000000000000815260040161246b9190613931565b60405180910390fd5b7f360894a13ba1a3210667c828492db98dca3e2076cc3735a920a3ca505d382bbc5f1b81146124da57806040517faa1d49a40000000000000000000000000000000000000000000000000000000081526004016124d19190613cf2565b60405180910390fd5b6124e48383612df9565b505050565b7f000000000000000000000000000000000000000000000000000000000000000073ffffffffffffffffffffffffffffffffffffffff163073ffffffffffffffffffffffffffffffffffffffff161461256e576040517fe07c8dba00000000000000000000000000000000000000000000000000000000815260040160405180910390fd5b565b5f7fcd5ed15c6e187e77e9aee88184c21f4f2182ab5827cb3b7e07fbedcd63f03300905090565b61259f611f9d565b5f6125a8612570565b90506001815f015f6101000a81548160ff0219169083151502179055507f62e78cea01bee320cd4e420270b5ea74000d11b0c9f74754ebdbfc544b05a2586125ee611ed6565b6040516125fb9190613931565b60405180910390a150565b5f61260f611de2565b90505f73ffffffffffffffffffffffffffffffffffffffff168373ffffffffffffffffffffffffffffffffffffffff160361268157826040517f5b08ba180000000000000000000000000000000000000000000000000000000081526004016126789190613931565b60405180910390fd5b81816005015f8673ffffffffffffffffffffffffffffffffffffffff1673ffffffffffffffffffffffffffffffffffffffff1681526020019081526020015f205f8573ffffffffffffffffffffffffffffffffffffffff1673ffffffffffffffffffffffffffffffffffffffff1681526020019081526020015f205f6101000a81548160ff0219169083151502179055508273ffffffffffffffffffffffffffffffffffffffff168473ffffffffffffffffffffffffffffffffffffffff167f17307eab39ab6107e8899845ad3d59bd9653f200f220920489ca2b5937696c318460405161276f91906137eb565b60405180910390a350505050565b5f8373ffffffffffffffffffffffffffffffffffffffff163b1115612922578273ffffffffffffffffffffffffffffffffffffffff1663150b7a02868685856040518563ffffffff1660e01b81526004016127db9493929190614dc9565b6020604051808303815f875af192505050801561281657506040513d601f19601f820116820180604052508101906128139190614e27565b60015b612897573d805f8114612844576040519150601f19603f3d011682016040523d82523d5f602084013e612849565b606091505b505f81510361288f57836040517f64a0ae920000000000000000000000000000000000000000000000000000000081526004016128869190613931565b60405180910390fd5b805160208201fd5b63150b7a0260e01b7bffffffffffffffffffffffffffffffffffffffffffffffffffffffff1916817bffffffffffffffffffffffffffffffffffffffffffffffffffffffff19161461292057836040517f64a0ae920000000000000000000000000000000000000000000000000000000081526004016129179190613931565b60405180910390fd5b505b5050505050565b5f5f612933612e6b565b90508091505090565b612944612e94565b565b61294e612e94565b6129588282612ed4565b5050565b612964612e94565b565b61296e612e94565b565b612978612e94565b565b5f612983611f76565b90505f61298f84610e08565b905082825f015f8681526020019081526020015f20600101819055508281857fbd79b86ffe0ab8e8776151514217cd7cacd52c909f66475c3af44e129f0b00ff60405160405180910390a450505050565b5f7f7965db0b000000000000000000000000000000000000000000000000000000007bffffffffffffffffffffffffffffffffffffffffffffffffffffffff1916827bffffffffffffffffffffffffffffffffffffffffffffffffffffffff19161480612a525750612a5182612f0f565b5b9050919050565b5f5f612a63611de2565b9050806002015f8481526020019081526020015f205f9054906101000a900473ffffffffffffffffffffffffffffffffffffffff16915050919050565b5f5f5f36905090505f612ab1612f78565b9050808210158015612ac85750612ac7336111d4565b5b15612af8575f36828403908092612ae193929190614e5a565b90612aec9190614ec9565b60601c92505050612b05565b612b00612f86565b925050505b90565b5f612b11611de2565b90508180612b4b57505f73ffffffffffffffffffffffffffffffffffffffff168373ffffffffffffffffffffffffffffffffffffffff1614155b15612c7d575f612b5a85611e09565b90505f73ffffffffffffffffffffffffffffffffffffffff168473ffffffffffffffffffffffffffffffffffffffff1614158015612bc457508373ffffffffffffffffffffffffffffffffffffffff168173ffffffffffffffffffffffffffffffffffffffff1614155b8015612bd75750612bd5818561183e565b155b15612c1957836040517fa9fbf51f000000000000000000000000000000000000000000000000000000008152600401612c109190613931565b60405180910390fd5b8215612c7b57848673ffffffffffffffffffffffffffffffffffffffff168273ffffffffffffffffffffffffffffffffffffffff167f8c5be1e5ebec7d5bd14f71427d1e84f3dd0314c0f7b2291e5b200ac8c7c3b92560405160405180910390a45b505b84816004015f8681526020019081526020015f205f6101000a81548173ffffffffffffffffffffffffffffffffffffffff021916908373ffffffffffffffffffffffffffffffffffffffff1602179055505050505050565b5f612cde611f9d565b612ce9848484612f8d565b90509392505050565b612cfc8282611366565b612d3f5780826040517fe2517d3f000000000000000000000000000000000000000000000000000000008152600401612d36929190614f27565b60405180910390fd5b5050565b612d4d83836131aa565b612d61612d58611ed6565b5f85858561277d565b505050565b612d6e611212565b612da4576040517f8dfc202b00000000000000000000000000000000000000000000000000000000815260040160405180910390fd5b565b5f612dd27f360894a13ba1a3210667c828492db98dca3e2076cc3735a920a3ca505d382bbc5f1b61329d565b5f015f9054906101000a900473ffffffffffffffffffffffffffffffffffffffff16905090565b612e02826132a6565b8173ffffffffffffffffffffffffffffffffffffffff167fbc7cd75a20ee27fd9adebab32041f755214dbc6bffa90cc0225b39da2e5c2d3b60405160405180910390a25f81511115612e5e57612e58828261336f565b50612e67565b612e666133ef565b5b5050565b5f7ff0c57e16840df040f15088dc2f81fe391c3923bec73e23a9662efc9c229c6a005f1b905090565b612e9c61342b565b612ed2576040517fd7e6bcf800000000000000000000000000000000000000000000000000000000815260040160405180910390fd5b565b612edc612e94565b5f612ee5611de2565b905082815f019081612ef791906145e1565b5081816001019081612f0991906145e1565b50505050565b5f7f01ffc9a7000000000000000000000000000000000000000000000000000000007bffffffffffffffffffffffffffffffffffffffffffffffffffffffff1916827bffffffffffffffffffffffffffffffffffffffffffffffffffffffff1916149050919050565b5f612f81613449565b905090565b5f33905090565b5f5f612f97611de2565b90505f612fa385612a59565b90505f73ffffffffffffffffffffffffffffffffffffffff168473ffffffffffffffffffffffffffffffffffffffff1614612fe457612fe3818587613451565b5b5f73ffffffffffffffffffffffffffffffffffffffff168173ffffffffffffffffffffffffffffffffffffffff1614613071576130235f865f5f612b08565b6001826003015f8373ffffffffffffffffffffffffffffffffffffffff1673ffffffffffffffffffffffffffffffffffffffff1681526020019081526020015f205f82825403925050819055505b5f73ffffffffffffffffffffffffffffffffffffffff168673ffffffffffffffffffffffffffffffffffffffff16146130f2576001826003015f8873ffffffffffffffffffffffffffffffffffffffff1673ffffffffffffffffffffffffffffffffffffffff1681526020019081526020015f205f82825401925050819055505b85826002015f8781526020019081526020015f205f6101000a81548173ffffffffffffffffffffffffffffffffffffffff021916908373ffffffffffffffffffffffffffffffffffffffff160217905550848673ffffffffffffffffffffffffffffffffffffffff168273ffffffffffffffffffffffffffffffffffffffff167fddf252ad1be2c89b69c2b068fc378daa952ba7f163c4a11628f55a4df523b3ef60405160405180910390a480925050509392505050565b5f73ffffffffffffffffffffffffffffffffffffffff168273ffffffffffffffffffffffffffffffffffffffff160361321a575f6040517f64a0ae920000000000000000000000000000000000000000000000000000000081526004016132119190613931565b60405180910390fd5b5f61322683835f611ef6565b90505f73ffffffffffffffffffffffffffffffffffffffff168173ffffffffffffffffffffffffffffffffffffffff1614613298575f6040517f73c6ac6e00000000000000000000000000000000000000000000000000000000815260040161328f9190613931565b60405180910390fd5b505050565b5f819050919050565b5f8173ffffffffffffffffffffffffffffffffffffffff163b0361330157806040517f4c9c8ce30000000000000000000000000000000000000000000000000000000081526004016132f89190613931565b60405180910390fd5b8061332d7f360894a13ba1a3210667c828492db98dca3e2076cc3735a920a3ca505d382bbc5f1b61329d565b5f015f6101000a81548173ffffffffffffffffffffffffffffffffffffffff021916908373ffffffffffffffffffffffffffffffffffffffff16021790555050565b60605f5f8473ffffffffffffffffffffffffffffffffffffffff16846040516133989190614f88565b5f60405180830381855af49150503d805f81146133d0576040519150601f19603f3d011682016040523d82523d5f602084013e6133d5565b606091505b50915091506133e5858383613514565b9250505092915050565b5f341115613429576040517fb398979f00000000000000000000000000000000000000000000000000000000815260040160405180910390fd5b565b5f613434612929565b5f0160089054906101000a900460ff16905090565b5f6014905090565b61345c8383836135a1565b61350f575f73ffffffffffffffffffffffffffffffffffffffff168373ffffffffffffffffffffffffffffffffffffffff16036134d057806040517f7e2732890000000000000000000000000000000000000000000000000000000081526004016134c79190614190565b60405180910390fd5b81816040517f177e802f000000000000000000000000000000000000000000000000000000008152600401613506929190614f9e565b60405180910390fd5b505050565b6060826135295761352482613661565b613599565b5f825114801561354f57505f8473ffffffffffffffffffffffffffffffffffffffff163b145b1561359157836040517f9996b3150000000000000000000000000000000000000000000000000000000081526004016135889190613931565b60405180910390fd5b81905061359a565b5b9392505050565b5f5f73ffffffffffffffffffffffffffffffffffffffff168373ffffffffffffffffffffffffffffffffffffffff161415801561365857508273ffffffffffffffffffffffffffffffffffffffff168473ffffffffffffffffffffffffffffffffffffffff1614806136195750613618848461183e565b5b8061365757508273ffffffffffffffffffffffffffffffffffffffff1661363f83611e8f565b73ffffffffffffffffffffffffffffffffffffffff16145b5b90509392505050565b5f8151111561367257805160208201fd5b6040517fd6bda27500000000000000000000000000000000000000000000000000000000815260040160405180910390fd5b604051806101c001604052805f8152602001606081526020015f81526020015f81526020015f81526020015f81526020015f81526020015f81526020015f81526020015f81526020015f81526020016136fb613710565b8152602001606081526020015f151581525090565b6040518060c001604052805f81526020015f81526020015f81526020015f81526020015f81526020015f81525090565b5f604051905090565b5f5ffd5b5f5ffd5b5f7fffffffff0000000000000000000000000000000000000000000000000000000082169050919050565b61378581613751565b811461378f575f5ffd5b50565b5f813590506137a08161377c565b92915050565b5f602082840312156137bb576137ba613749565b5b5f6137c884828501613792565b91505092915050565b5f8115159050919050565b6137e5816137d1565b82525050565b5f6020820190506137fe5f8301846137dc565b92915050565b5f81519050919050565b5f82825260208201905092915050565b8281835e5f83830152505050565b5f601f19601f8301169050919050565b5f61384682613804565b613850818561380e565b935061386081856020860161381e565b6138698161382c565b840191505092915050565b5f6020820190508181035f83015261388c818461383c565b905092915050565b5f819050919050565b6138a681613894565b81146138b0575f5ffd5b50565b5f813590506138c18161389d565b92915050565b5f602082840312156138dc576138db613749565b5b5f6138e9848285016138b3565b91505092915050565b5f73ffffffffffffffffffffffffffffffffffffffff82169050919050565b5f61391b826138f2565b9050919050565b61392b81613911565b82525050565b5f6020820190506139445f830184613922565b92915050565b61395381613911565b811461395d575f5ffd5b50565b5f8135905061396e8161394a565b92915050565b5f5f6040838503121561398a57613989613749565b5b5f61399785828601613960565b92505060206139a8858286016138b3565b9150509250929050565b6139bb81613894565b82525050565b5f82825260208201905092915050565b5f6139db82613804565b6139e581856139c1565b93506139f581856020860161381e565b6139fe8161382c565b840191505092915050565b60c082015f820151613a1d5f8501826139b2565b506020820151613a3060208501826139b2565b506040820151613a4360408501826139b2565b506060820151613a5660608501826139b2565b506080820151613a6960808501826139b2565b5060a0820151613a7c60a08501826139b2565b50505050565b5f81519050919050565b5f82825260208201905092915050565b5f613aa682613a82565b613ab08185613a8c565b9350613ac081856020860161381e565b613ac98161382c565b840191505092915050565b613add816137d1565b82525050565b5f61026083015f830151613af95f8601826139b2565b5060208301518482036020860152613b1182826139d1565b9150506040830151613b2660408601826139b2565b506060830151613b3960608601826139b2565b506080830151613b4c60808601826139b2565b5060a0830151613b5f60a08601826139b2565b5060c0830151613b7260c08601826139b2565b5060e0830151613b8560e08601826139b2565b50610100830151613b9a6101008601826139b2565b50610120830151613baf6101208601826139b2565b50610140830151613bc46101408601826139b2565b50610160830151613bd9610160860182613a09565b50610180830151848203610220860152613bf38282613a9c565b9150506101a0830151613c0a610240860182613ad4565b508091505092915050565b5f6020820190508181035f830152613c2d8184613ae3565b905092915050565b5f5f5f60608486031215613c4c57613c4b613749565b5b5f613c5986828701613960565b9350506020613c6a86828701613960565b9250506040613c7b868287016138b3565b9150509250925092565b5f819050919050565b613c9781613c85565b8114613ca1575f5ffd5b50565b5f81359050613cb281613c8e565b92915050565b5f60208284031215613ccd57613ccc613749565b5b5f613cda84828501613ca4565b91505092915050565b613cec81613c85565b82525050565b5f602082019050613d055f830184613ce3565b92915050565b5f5ffd5b7f4e487b71000000000000000000000000000000000000000000000000000000005f52604160045260245ffd5b613d458261382c565b810181811067ffffffffffffffff82111715613d6457613d63613d0f565b5b80604052505050565b5f613d76613740565b9050613d828282613d3c565b919050565b5f5ffd5b5f5ffd5b5f5ffd5b5f67ffffffffffffffff821115613dad57613dac613d0f565b5b613db68261382c565b9050602081019050919050565b828183375f83830152505050565b5f613de3613dde84613d93565b613d6d565b905082815260208101848484011115613dff57613dfe613d8f565b5b613e0a848285613dc3565b509392505050565b5f82601f830112613e2657613e25613d8b565b5b8135613e36848260208601613dd1565b91505092915050565b5f60c08284031215613e5457613e53613d0b565b5b613e5e60c0613d6d565b90505f613e6d848285016138b3565b5f830152506020613e80848285016138b3565b6020830152506040613e94848285016138b3565b6040830152506060613ea8848285016138b3565b6060830152506080613ebc848285016138b3565b60808301525060a0613ed0848285016138b3565b60a08301525092915050565b5f67ffffffffffffffff821115613ef657613ef5613d0f565b5b613eff8261382c565b9050602081019050919050565b5f613f1e613f1984613edc565b613d6d565b905082815260208101848484011115613f3a57613f39613d8f565b5b613f45848285613dc3565b509392505050565b5f82601f830112613f6157613f60613d8b565b5b8135613f71848260208601613f0c565b91505092915050565b613f83816137d1565b8114613f8d575f5ffd5b50565b5f81359050613f9e81613f7a565b92915050565b5f6102608284031215613fba57613fb9613d0b565b5b613fc56101c0613d6d565b90505f613fd4848285016138b3565b5f83015250602082013567ffffffffffffffff811115613ff757613ff6613d87565b5b61400384828501613e12565b6020830152506040614017848285016138b3565b604083015250606061402b848285016138b3565b606083015250608061403f848285016138b3565b60808301525060a0614053848285016138b3565b60a08301525060c0614067848285016138b3565b60c08301525060e061407b848285016138b3565b60e083015250610100614090848285016138b3565b610100830152506101206140a6848285016138b3565b610120830152506101406140bc848285016138b3565b610140830152506101606140d284828501613e3f565b6101608301525061022082013567ffffffffffffffff8111156140f8576140f7613d87565b5b61410484828501613f4d565b6101808301525061024061411a84828501613f90565b6101a08301525092915050565b5f5f6040838503121561413d5761413c613749565b5b5f61414a85828601613960565b925050602083013567ffffffffffffffff81111561416b5761416a61374d565b5b61417785828601613fa4565b9150509250929050565b61418a81613894565b82525050565b5f6020820190506141a35f830184614181565b92915050565b5f5f604083850312156141bf576141be613749565b5b5f6141cc85828601613ca4565b92505060206141dd85828601613960565b9150509250929050565b5f5f604083850312156141fd576141fc613749565b5b5f61420a85828601613960565b925050602083013567ffffffffffffffff81111561422b5761422a61374d565b5b61423785828601613f4d565b9150509250929050565b5f6020828403121561425657614255613749565b5b5f82013567ffffffffffffffff8111156142735761427261374d565b5b61427f84828501613e12565b91505092915050565b5f6020828403121561429d5761429c613749565b5b5f6142aa84828501613960565b91505092915050565b5f5f604083850312156142c9576142c8613749565b5b5f6142d685828601613960565b92505060206142e785828601613f90565b9150509250929050565b5f5f5f5f6080858703121561430957614308613749565b5b5f61431687828801613960565b945050602061432787828801613960565b9350506040614338878288016138b3565b925050606085013567ffffffffffffffff8111156143595761435861374d565b5b61436587828801613f4d565b91505092959194509250565b5f5f6040838503121561438757614386613749565b5b5f61439485828601613960565b92505060206143a585828601613960565b9150509250929050565b7f4e487b71000000000000000000000000000000000000000000000000000000005f52602260045260245ffd5b5f60028204905060018216806143f357607f821691505b602082108103614406576144056143af565b5b50919050565b5f60608201905061441f5f830186613922565b61442c6020830185614181565b6144396040830184613922565b949350505050565b5f819050815f5260205f209050919050565b5f6020601f8301049050919050565b5f82821b905092915050565b5f6008830261449d7fffffffffffffffffffffffffffffffffffffffffffffffffffffffffffffffff82614462565b6144a78683614462565b95508019841693508086168417925050509392505050565b5f819050919050565b5f6144e26144dd6144d884613894565b6144bf565b613894565b9050919050565b5f819050919050565b6144fb836144c8565b61450f614507826144e9565b84845461446e565b825550505050565b5f5f905090565b614526614517565b6145318184846144f2565b505050565b5b81811015614554576145495f8261451e565b600181019050614537565b5050565b601f8211156145995761456a81614441565b61457384614453565b81016020851015614582578190505b61459661458e85614453565b830182614536565b50505b505050565b5f82821c905092915050565b5f6145b95f198460080261459e565b1980831691505092915050565b5f6145d183836145aa565b9150826002028217905092915050565b6145ea82613804565b67ffffffffffffffff81111561460357614602613d0f565b5b61460d82546143dc565b614618828285614558565b5f60209050601f831160018114614649575f8415614637578287015190505b61464185826145c6565b8655506146a8565b601f19841661465786614441565b5f5b8281101561467e57848901518255600182019150602085019450602081019050614659565b8683101561469b5784890151614697601f8916826145aa565b8355505b6001600288020188555050505b505050505050565b5f819050815f5260205f209050919050565b601f821115614703576146d4816146b0565b6146dd84614453565b810160208510156146ec578190505b6147006146f885614453565b830182614536565b50505b505050565b61471182613a82565b67ffffffffffffffff81111561472a57614729613d0f565b5b61473482546143dc565b61473f8282856146c2565b5f60209050601f831160018114614770575f841561475e578287015190505b61476885826145c6565b8655506147cf565b601f19841661477e866146b0565b5f5b828110156147a557848901518255600182019150602085019450602081019050614780565b868310156147c257848901516147be601f8916826145aa565b8355505b6001600288020188555050505b505050505050565b5f81905092915050565b5f81546147ed816143dc565b6147f781866147d7565b9450600182165f8114614811576001811461482657614858565b60ff1983168652811515820286019350614858565b61482f85614441565b5f5b8381101561485057815481890152600182019150602081019050614831565b838801955050505b50505092915050565b5f819050919050565b61487b61487682613894565b614861565b82525050565b5f61488c82856147e1565b9150614898828461486a565b6020820191508190509392505050565b5f815f1c9050919050565b5f819050919050565b5f6148ce6148c9836148a8565b6148b3565b9050919050565b5f81546148e1816143dc565b6148eb81866139c1565b9450600182165f8114614905576001811461491b5761494d565b60ff19831686528115156020028601935061494d565b61492485614441565b5f5b8381101561494557815481890152600182019150602081019050614926565b808801955050505b50505092915050565b60c082015f5f830154905061496a816148bc565b6149765f8601826139b2565b5060018301549050614987816148bc565b61499460208601826139b2565b50600283015490506149a5816148bc565b6149b260408601826139b2565b50600383015490506149c3816148bc565b6149d060608601826139b2565b50600483015490506149e1816148bc565b6149ee60808601826139b2565b50600583015490506149ff816148bc565b614a0c60a08601826139b2565b5050505050565b5f8154614a1f816143dc565b614a298186613a8c565b9450600182165f8114614a435760018114614a5957614a8b565b60ff198316865281151560200286019350614a8b565b614a62856146b0565b5f5b83811015614a8357815481890152600182019150602081019050614a64565b808801955050505b50505092915050565b5f60ff82169050919050565b5f614ab2614aad836148a8565b614a94565b9050919050565b5f61026083015f5f8401549050614acf816148bc565b614adb5f8701826139b2565b50600184018583036020870152614af283826148d5565b92505060028401549050614b05816148bc565b614b1260408701826139b2565b5060038401549050614b23816148bc565b614b3060608701826139b2565b5060048401549050614b41816148bc565b614b4e60808701826139b2565b5060058401549050614b5f816148bc565b614b6c60a08701826139b2565b5060068401549050614b7d816148bc565b614b8a60c08701826139b2565b5060078401549050614b9b816148bc565b614ba860e08701826139b2565b5060088401549050614bb9816148bc565b614bc76101008701826139b2565b5060098401549050614bd8816148bc565b614be66101208701826139b2565b50600a8401549050614bf7816148bc565b614c056101408701826139b2565b50600b8401614c18610160870182614956565b5060118401858303610220870152614c308382614a13565b92505060128401549050614c4381614aa0565b614c51610240870182613ad4565b50819250505092915050565b5f6020820190508181035f830152614c758184614ab9565b905092915050565b5f819050919050565b5f67ffffffffffffffff82169050919050565b5f614cb3614cae614ca984614c7d565b6144bf565b614c86565b9050919050565b614cc381614c99565b82525050565b5f602082019050614cdc5f830184614cba565b92915050565b7f4e487b71000000000000000000000000000000000000000000000000000000005f52601160045260245ffd5b5f614d1982613894565b9150614d2483613894565b9250828201905080821115614d3c57614d3b614ce2565b5b92915050565b5f81519050614d5081613c8e565b92915050565b5f60208284031215614d6b57614d6a613749565b5b5f614d7884828501614d42565b91505092915050565b5f82825260208201905092915050565b5f614d9b82613a82565b614da58185614d81565b9350614db581856020860161381e565b614dbe8161382c565b840191505092915050565b5f608082019050614ddc5f830187613922565b614de96020830186613922565b614df66040830185614181565b8181036060830152614e088184614d91565b905095945050505050565b5f81519050614e218161377c565b92915050565b5f60208284031215614e3c57614e3b613749565b5b5f614e4984828501614e13565b91505092915050565b5f5ffd5b5f5ffd5b5f5f85851115614e6d57614e6c614e52565b5b83861115614e7e57614e7d614e56565b5b6001850283019150848603905094509492505050565b5f82905092915050565b5f7fffffffffffffffffffffffffffffffffffffffff00000000000000000000000082169050919050565b5f614ed48383614e94565b82614edf8135614e9e565b92506014821015614f1f57614f1a7fffffffffffffffffffffffffffffffffffffffff00000000000000000000000083601403600802614462565b831692505b505092915050565b5f604082019050614f3a5f830185613922565b614f476020830184613ce3565b9392505050565b5f81905092915050565b5f614f6282613a82565b614f6c8185614f4e565b9350614f7c81856020860161381e565b80840191505092915050565b5f614f938284614f58565b915081905092915050565b5f604082019050614fb15f830185613922565b614fbe6020830184614181565b939250505056fea2646970667358221220268484d440716678f8d08465b54cf0394f397ca813d0d21275471df15565ed8764736f6c634300081e0033","linkReferences":{}},"methodIdentifiers":{"DEFAULT_ADMIN_ROLE()":"a217fddf","MINTER_ROLE()":"d5391393","PAUSE_ROLE()":"389ed267","UPGRADER_ROLE()":"f72c0d8b","UPGRADE_INTERFACE_VERSION()":"ad3cb1cc","approve(address,uint256)":"095ea7b3","balanceOf(address)":"70a08231","burn(address,uint256)":"9dc29fac","disableNFT(uint256)":"aa77a809","enableNFT(uint256)":"cf7e15e7","getApproved(uint256)":"081812fc","getNFTData(uint256)":"0ad4c4f4","getRoleAdmin(bytes32)":"248a9ca3","grantRole(bytes32,address)":"2f2ff15d","hasRole(bytes32,address)":"91d14854","initialize(string)":"f62d1888","isApprovedForAll(address,address)":"e985e9c5","isTrustedForwarder(address)":"572b6c05","mint(address,(uint256,string,uint256,uint256,uint256,uint256,uint256,uint256,uint256,uint256,uint256,(uint256,uint256,uint256,uint256,uint256,uint256),bytes,bool))":"26a75148","name()":"06fdde03","nftCtr()":"fe440424","ownerOf(uint256)":"6352211e","pause()":"8456cb59","paused()":"5c975abb","proxiableUUID()":"52d1902d","renounceRole(bytes32,address)":"36568abe","revokeRole(bytes32,address)":"d547741f","safeTransferFrom(address,address,uint256)":"42842e0e","safeTransferFrom(address,address,uint256,bytes)":"b88d4fde","setApprovalForAll(address,bool)":"a22cb465","setBaseURI(string)":"55f804b3","supportsInterface(bytes4)":"01ffc9a7","symbol()":"95d89b41","tokenURI(uint256)":"c87b56dd","transferFrom(address,address,uint256)":"23b872dd","trustedForwarder()":"7da0a877","unpause()":"3f4ba83a","updateTrustedForwarder(address)":"f90b0311","upgradeToAndCall(address,bytes)":"4f1ef286","version()":"54fd4d50"},"id":46}